:020000040800F2
:10000000D8040020C50000080B17000809170008D5
:1000100000000000000000000000000000000000E0
:10002000000000000000000000000000D5170008DC
:1000300000000000000000000D170008551E000819
:10004000D700000800000000D7000008D700000813
:10005000D7000008D7000008D7000008D700000824
:1000600000000000D700000865070008D70000085E
:10007000D7000008D7000008D700000800000000E3
:10008000D70000080000000000000000D7000008B2
:1000900000000000D7000008D7000008D7000008C3
:1000A00000000000D700000800000000A5200008A4
:1000B0000348854600F020FB00480047B5200008B3
:1000C000D80400200448804704480047FEE7FEE7C4
:1000D000FEE7FEE7FEE7FEE75D1E0008B100000850
:1000E00010B5202A04DB0846203AD040002110BD7C
:1000F0000B46D340D0402024A21A91400843194611
:1001000010BD0000F0B51FB488B00B990998002409
:1001100048400999C00F490049080991C0070B9947
:100120000090490049080B9109990898A646084390
:100130001CD00B990A98084318D009980124400054
:10014000420D4800410D099824050003000B20438F
:1001500009900B980003000B20430B9050181C498A
:100160004018002201901446104605E00020014688
:100170000DB0F0BD032801DA034600E003239C46DE
:10018000C11A0AAE0AE05F0008ADED5B4F00F75BF5
:100190007D430027AA187C41491C5B1E6145F2DDA6
:1001A000410004AB5A522104120C0A43240C401C97
:1001B0000828DFDB019802900099704601910090B9
:1001C000059B049A0799069800F0E5F8D0E700002F
:1001D0000DFCFFFF0EB5C217C10F5040CA074018F3
:1001E0000021054B0293019200910A460B4600F054
:1001F000D2F803B000BD000033040000C20FD207E4
:10020000400040080BD0C10D0723DB01C918400294
:100210000905400A1143C2084007114370470020F6
:1002200001467047CB0FDB07490010B5490802466D
:100230000A4307D00A0D07240903E401090B121B26
:10024000002A01DC002010BDC900440F0C43C1008E
:10025000E018D205801800F050F810BD70B50446C3
:10026000002903D000202022012310E0002801D023
:100270000020C043C046C0460DE02546D5408D4213
:1002800005D30D469540641B1D4695404019154603
:10029000521E002DF1DC214670BDF0B51FB406469C
:1002A000002082B005464024019100901BE0019996
:1002B00022460F463046FFF713FF049A059B801A2B
:1002C000994110D310461946224600F027FA361AF3
:1002D0008F410197224601200021009F00F01EFA65
:1002E00038184D4100902046641E0028DFDC019B39
:1002F00000982946324607B0F0BD002904DA401CB8
:10030000490001D140084000704770B40024050C3A
:1003100005D11024000402D1002921D01124050E9A
:1003200001D100020834050F01D10001241D850F01
:1003300001D18000A41C002801DB4000641C0029BE
:1003400008D020252E1B0D46F540A14000D00121EC
:100350002943084301061B1B000ADB1D02D50020B0
:1003600070BC7047DB05181880180029F8DA401CAB
:100370004900F5D170BC40084000704710B5002B13
:1003800008DA0024401C614192185B411A4301D1F4
:100390004008400010BDF0B51FB482B005460C0007
:1003A00003D0084601F024FF02E001F021FF2030D5
:1003B000024600902146284600F0B0F9049B059AB9
:1003C00004460F4618431143084314D018461043FF
:1003D0001BD0009840210A1A18460599FFF780FEA5
:1003E00005460E46009A0599049800F097F90843CF
:1003F00005D0012004E02046394607B0F0BD0020BA
:10040000C11705430E432C43374300990E986305EB
:10041000401A7905E40A00220C43FD0A0A3002D58D
:1004200000200146E9E70105101969410C9C0D9D6A
:1004300000196941FFF7A2FFDFE70000F0B50746AA
:100440000846584087B0C00F049048000E46590037
:1004500040084908BC1A884105D2384631461E4634
:1004600017460B4602465800400810434CD0300D4A
:10047000039040055900400D490D0590401A029027
:10048000402872DA18030121000B09050843019086
:1004900004980092002805D001995242002088411A
:1004A00000920190029840210A1A0199009800F0E8
:1004B00035F905460C466B4607CB00F03FF9C019ED
:1004C0007141039A0E0D0023D71756401A467A4001
:1004D000164344D0049A002A2DD0029A012A039A86
:1004E00015DC1205C01A914101263605001C714128
:1004F000D20F059ED2070093019202962A46234608
:10050000FFF749FF07B0F0BD38463146FAE7160558
:10051000224A0F46B218C01AB74101210905001C32
:100520004F4100187F41114618187941E20F1043DE
:100530006D19644113E0E2076D0815436408C207B2
:100540001443039A01261205C01A91413605001C76
:100550007141CE07400830434908C01851412A462E
:100560002346FFF70BFFCDE7FFE704980122400089
:10057000C117121A00238B4104983146C417381A48
:10058000A141EEE730B40124E407634030BC55E7F5
:1005900030B40124E407614030BC4FE70000E0FFC5
:1005A000F0B50C465C4085B0E40FE40703944C00C2
:1005B00000266408590094464908024602962243E0
:1005C00021D062460A431ED06200570D4A000E0336
:1005D0002303550D012402462C492405781B1B0BCF
:1005E000360B401823432643614600901C46501AA0
:1005F000B44103D30098401C009002E09218009888
:100600005B41002803DA0020014605B0F0BD002060
:10061000012109050746864611E064461D46141B64
:10062000B54106D36546521BB341744607430C439C
:10063000A646CD0740084908284392185B41054665
:100640000D43EAD11046184313D060461946504076
:100650007140084306D06046101AB34106D2012209
:10066000002306E000220123DB0702E00122D2433F
:100670005310009874460105381C6141029C039D8B
:1006800000196941FFF77AFEBFE70000FD03000093
:100690004A0009030123090B1B0519430A4B10B536
:1006A000520D9A4202DA0020014610BD064B343347
:1006B0009A4203DC9A1AFFF713FD10BD034BD218C0
:1006C00000F02CF810BD0000FF030000CDFBFFFF81
:1006D00010B5002904DB0124E40740428C41214687
:1006E000002B04DB1C460123DB075242A341994245
:1006F00000D1904210BD0000064C0125064E05E0D9
:10070000E36807CC2B430C3C98471034B442F7D332
:10071000FFF7D2FC342B0008542B000810B5202A18
:1007200004DB0146203A9140002010BD9140202377
:100730009C1A0346E3401943904010BD10B5202A8F
:1007400006DBCB170846203A1041C1170B4306E0E1
:100750000B461341D0402024A21A91400843194669
:1007600010BD000080B5024800F026F880BDC046EC
:100770008C0000207047B0B5014620314A78022A2B
:1007800016D1026813680E24A34313601368012571
:10079000AB431360C26B036C2C469C405460002436
:1007A0000C704D70416B002900D088472046B0BDC9
:1007B000042181630120B0BDF0B585B0C16B026C2E
:1007C00004273C460292944003910E682146314032
:1007D0004B424B41049005682868014639404A4223
:1007E0004A411A4330D0019501230227014639407E
:1007F0004C424C41029A974037421D4619463346B7
:1008000000D02146049E3446203400292CD00821F3
:100810000840474247411046D340190700D53D469E
:10082000002D019B1ED119680E22914319600121F0
:100830000A468240039B5A60B163002222706170B5
:10084000316B00290CD10DE02968890602D4296892
:10085000B943296003994C60049EF16A002901D0D4
:100860003046884705B0F0BD019B1968890605D45C
:1008700019680A22914319600121617000212170D9
:1008800003994F60B16A0029EAD1EBE7F0B585B072
:10089000002833D004460646203602207070A2CCD1
:1008A000236860680190A0680290E0680390206966
:1008B00004900868134A02402A433A431A430198B5
:1008C00002430298024303980243049802430A60D9
:1008D0000025E5620C4820630C480C3C08181421E4
:1008E000FFF7BCFC80002064A562E56225636563B8
:1008F000012070703570284605B0F0BD01252846EE
:1009000005B0F0BD0FC0FFFF00000240F8FFFDBFC3
:10091000B0B582B0019000F0E1F804460198451CA2
:1009200001D30020C54300F0D9F8001BA842FAD338
:1009300002B0B0BDF0B589B00A68002A00D1B7E0B6
:1009400004465C48844201D0052000E0032000906A
:1009500000273B463D4601940CE03243019CEA608F
:10096000079D6D1C0A681046E8403F1D9B1C00282F
:1009700000D19DE001260596AE403240F1D00795AA
:100980000693049702924D681020284312280B46C4
:100990000FD11C20049908400F218140079AD708E5
:1009A000BF00E7193A6A8A431969814011433962E5
:1009B0005D681946032228461040069B9840039222
:1009C0009A402768974307432760D043122D12D8D7
:1009D000059AAA40394B1A42069B0CD0A2680240E5
:1009E000CF689F401743A7602A09079FBA406768EE
:1009F000B74317436760E268024088689840104335
:100A0000E060E800049F079DABD5544A1068059B41
:100A1000184310601068184008902E460C253D4081
:100A20000F22AA40039886430898254BF05890431C
:100A3000F6180922D20694420CD0224A944206D0DB
:100A4000214A9442009A069B06D1022204E0069BAA
:100A5000059A01E00022069BAA4002433260164D2F
:100A60002C684868C20310D5029E34432C606C6821
:100A7000820310D4B4436C60AC68C20210D4B44397
:100A8000AC60EA68800211D567E7029EB4432C602F
:100A90006C688203EED534436C60AC68C202EED55C
:100AA0003443AC60EA68800200D556E7B24355E7AC
:100AB00009B0F0BD000C004800040140060006002B
:100AC000080001400004004800080048002A02D045
:100AD00018228150704728228150704704480068CE
:100AE0007047C04602480168491C01607047C04613
:100AF000D000002010B5C348016810220A430260EC
:100B00000024204600F004F800F014F8204610BD40
:100B1000B0B5044600F07CF97D21C900FFF79EFBCB
:100B200000F098FB0025E84321462A4600F022F811
:100B30002846B0BD82B00948016801221143016016
:100B40000168114001910199110742680A4342600E
:100B5000406808400090009802B0704718100240AA
:100B60001F21014001208840014908607047C046AC
:100B700000E100E0002805D4032203469343094A1C
:100B80009A1803E00C220240074BD2188007C00ECF
:100B90008901C9B28140FF2383401068984308430C
:100BA0001060704700E400E014ED00E0F0B585B09F
:100BB00004468078C0073A4B4FD0012003900107CC
:100BC0001A1F10680840029006D110680843106090
:100BD000106808400490049800920191314E3068EA
:100BE000C00513D403980702306838433060FFF71C
:100BF00075FF05463068384208D1FFF76FFF401B8C
:100C00006428F7D90325284605B0F0BD032528023E
:100C1000234B1968014012D06268024091420ED005
:100C20000398000419681A6802431A601A6882431C
:100C30001A6008461C4A10401860C80722D118687C
:100C4000194908406168014319600298002804D1DD
:100C5000009A10680199884310602068C10705D088
:100C6000196903229143A2680A431A61002580068C
:100C7000C9D5186910218843E168014319612846E4
:100C800005B0F0BDFFF72AFF06465F4F044B18681A
:100C90008007D4D4FFF722FF801BB842F6D9B2E711
:100CA0002010024000700040FFFCFFFFF0B581B053
:100CB0000D46544A116801242140A94208D2116806
:100CC0000126B1432943116011683140A94247D13F
:100CD00001688A07654B07D51A68F0239A43836831
:100CE0001343624A1360614B0090C90726D14549FE
:100CF000086801263040A842009A05D90868B04328
:100D000008600868C0072BD11078400706D5072077
:100D1000000219688143D0680843186019680C22E2
:100D20000A405348082A15D18A02120F514B9C5C85
:100D30004E4B9A6AC9034DD4504852E0009841681E
:100D40001A1F022908D001290DD1126892032646E4
:100D500006D50CE0044645E012689201264606D40A
:100D6000304601B0F0BD126892072646F8D5044619
:100D700018680326B04308431860FFF7AFFE074624
:100D80006068214C012813D0384B02281DD1186807
:100D90000C2101400829AAD0FFF7A0FE334BC01B4D
:100DA000A042F4D9DCE7FFF799FEC01BA042D7D8D8
:100DB0002E4B18680C2101400429F4D197E7FFF766
:100DC0008DFE2A4BC01BA042CAD818680007800FAE
:100DD000F5D18CE70F210A402749895CFFF73EFADD
:100DE000224B444318680006000F0849085CC440C1
:100DF0000E48046000263046FFF78AFE304601B0F8
:100E0000F0BDC0460020024088130000FA2A000806
:100E1000064800687047C0460448006813490968DE
:100E20004905490F024A515CC84070470400002040
:100E30000A2B000810B50D490A680C2313400C4812
:100E4000082B09D193021B0F0A4CE45C896AD20378
:100E500003D40A484443204610BD0F221140064ADD
:100E6000515CFFF7FBF94443204610BD04100240DB
:100E700000127A00122B0008222B000800093D0006
:100E8000F0B585B007460078C007EF4E03970CD049
:100E900071680C200140042900D088E0306880038C
:100EA00003D57868002800D1F9E0387880071BD591
:100EB00070680007800F09D070680C210140082974
:100EC00000D088E07068C00300D584E030688007F7
:100ED00003D5F868012800D0E1E03068F8218843A4
:100EE0003969C900014331603878000724D4387863
:100EF000400736D43878C00600D4C6E0039840696D
:100F0000411D00D1B5E0012800D0F1E0706B042153
:100F100001437163706B012101437163FFF7DEFDD3
:100F20000546706B800700D5A7E0FFF7D7FD411B92
:100F300003200229F5D981E1706AF969002974D08A
:100F4000012108437062FFF7C9FD0546706A8007FA
:100F5000CDD4FFF7C3FD401B0228F7D9032005B00D
:100F6000F0BD012002900107F0690840019006D110
:100F7000F0690843F061F06908400490049800911A
:100F8000B24F3868C0053CD4029804023868204348
:100F90003860FFF7A3FD05463868204231D1FFF7DE
:100FA0009DFD401B6428F7D9032005B0F0BD716892
:100FB0000140082903D17068C00300D56EE7786846
:100FC000002800D1DEE0052800D1F4E0012800D09F
:100FD000FAE00120F4E03068F968002937D00121F7
:100FE00008433060FFF77AFD05463068800700D57A
:100FF00073E7FFF773FD401B0228F6D9032005B005
:10100000F0BD03988068924F002800D185E0052844
:1010100000D197E0012800D198E0306A0299884316
:101020003062306A0421884393E001218843706272
:10103000FFF754FD0546706A800700D457E7FFF7B5
:101040004DFD401B0228F6D9032005B0F0BD01215B
:1010500088433060FFF742FD05463068800700D4C2
:1010600042E7FFF73BFD401B0228F6D9032005B0FD
:10107000F0BD706B042188437063706BF821884366
:1010800003998969C900014371630398046A0022C6
:10109000002C07D070680C210140082905D10120DF
:1010A00005B0F0BD104605B0F0BD02920120020669
:1010B00031680192914331604706FFF70FFD054605
:1010C000022C0AD13068384200D197E0FFF706FDC4
:1010D000411B03200229F5D9B0E03068384200D125
:1010E000AEE0FFF7FBFC411B03200329F5D3A5E08D
:1010F000706B042101437163706B0121884370633D
:10110000FFF7ECFC0546706B8007BED5FFF7E6FCE9
:10111000411B03200229F6D990E0306A02998843E6
:101120003062306A042188433062FFF7D7FC0546FD
:10113000306A80071CD5FFF7D1FC411B0320B94260
:10114000F6D97BE0306A042101433162306A0299AA
:1011500008433062FFF7C2FC0546306A800707D4B7
:10116000FFF7BCFC401BB842F7D9032005B0F0BD27
:1011700001980028039F00D0BCE6F06900998843DD
:10118000F061B7E60120010432688A4332608104CD
:1011900032688A4332604404FFF7A0FC0546039F8F
:1011A0003068204200D180E6FFF798FC411B032005
:1011B0006429F5D942E00120810432680A43326093
:1011C00001043068084307E00120010432688A43C3
:1011D0003260810430688843306001204404FFF7A6
:1011E0007DFC05463068204200D05EE6FFF776FCC5
:1011F000401B6428F6D9032005B0F0BDF06A0F212A
:101200008843039AD16A0143F1623D20000471686A
:101210008143906A0843516A0143716030680199C3
:1012200008433060FFF75AFC04463068384207D163
:10123000FFF754FC011B03200229F6D905B0F0BDCD
:10124000029805B0F0BDC04600100240007000409A
:1012500088130000401E010E01D00120704707498D
:10126000074A5060074803680B4003218907591853
:10127000016000209060072111607047FFFFFF00B0
:1012800010E000E020ED00E070470000F0B589B00C
:101290000168CE690B682024089323405A425A41C2
:1012A0002F273740203F7D1EAF411743054652355B
:1012B000002F33D0039307950494069001250591E0
:1012C0008F6831463607089807D001231F401C025B
:1012D000224620320240BA186AD1802604463440A1
:1012E000624262410C062F46034600D51746002F86
:1012F000069841D0402633405A425A41490600D50B
:101300001546002D079B07D1059A1168B14311605E
:101310000499D97500F0F7F909B0F0BD0B46698959
:101320002A7E222A22D127469A8C0124230386680A
:101330009E4203D10369002B00D1A1E0436D5E1CE6
:1013400046650A401A702989491E29810904E3D19A
:1013500009214901026813688B4313609168A14316
:1013600091602F7600F0CEF909B0F0BD996908229E
:101370000A439A6109B0F0BD079BD97D2129CBD1E1
:101380001988002900D181E00121090382688A427D
:1013900003D10169002900D187E0C16C4A1CC264F5
:1013A0000978059801851888401E188009B0F0BD9D
:1013B00001960293204042424241CB072E462B46E3
:1013C00000D01346002B069C0598079D04D1029B74
:1013D0000362E26E1A43E2667A427A418B07334631
:1013E00000D51346002B05D102220262E26E0423CF
:1013F0001343E3667A427A414B07334600D51346DE
:10140000002B05D104220262E26E02231343E3663D
:10141000039A17437A427A41019B002B33460BD53E
:101420001346002B0AD108220262E36E1343E366DF
:10143000E26E002A06D16FE7002BF4D0E26E002A9C
:1014400000D169E7029F049801400398424242415B
:10145000002900D01646002E059847D169892A7EBA
:10146000222A1DD1808C3A03A368934202D12269BB
:10147000002A23D0626D531C63650840107022E07F
:101480000A40416D0A80891C41655CE70598016846
:10149000B1430160016840220A43026009B0F0BD17
:1014A000816908220A43826120E0C16C8A1CC264FF
:1014B0000988934A0A400598028574E70840616DDF
:1014C0000880881C60652889401E288100040DD191
:1014D0000920400121680A6882430A608868B8438D
:1014E000886004982876204600F00CF92068E16EA8
:1014F000090709D48168490606D42046FFF7C4FECF
:101500000020E06609B0F0BD0921490102688A4364
:1015100002608168B943816004992976816849062F
:1015200012D58168402291438160606E00280BD003
:1015300008494163FFF71FF9002800D1ECE6606E0F
:10154000416B884709B0F0BD2046FFF79DFE09B00A
:10155000F0BDC046871F000870B5002831D0044692
:10156000064668367078002804D100203070204686
:1015700000F02AF824207070206801680125A94332
:101580000160204600F00AFD012818D0606A00289A
:1015900002D0204600F08EFC0120C1022268536870
:1015A0008B4353609168082399439160116801430C
:1015B00011600025E566202070703570B0702846F7
:1015C00070BD012070BD000070B586B00446006893
:1015D0002249884201D006B070BD214841680122ED
:1015E00005929303194341604168194000910099A5
:1015F000510402680A43026000680840009003201A
:10160000049000260396022002900C20019000987E
:101610000920C00601A9FFF78DF9124D2020802175
:10162000114A44C52E606960AE60EE6028616E614B
:10163000083D2846FFF72AF9002801D0FFF79AF85D
:101640006C6265661B24002120460A46FFF792FA69
:101650002046FFF785FA06B070BDC046003801404D
:10166000141002408C00002030000240F0B581B020
:1016700004465834A37C0226202B13D101230029D1
:101680000DD0002A0BD08768012300931D03AF42C1
:101690000CD1CB070AD00369002B07D1009B184659
:1016A00001B0F0BD3346184601B0F0BD237C012BDC
:1016B0003346F4D0628022804165002F06D0AF42CD
:1016C0000BD10169002906D10D4905E00169002906
:1016D00001D07F2100E0FF21A1800023C3662221E9
:1016E000A17400688168009A114381602374092104
:1016F000490102680A430260184601B0F0BDC046C5
:10170000FF01000070477047FEE770477047000018
:10171000F0B583B06E46FF27377036240B210125C4
:1017200020462A46334600F0FDF930788006C10F86
:1017300017A000F04DFD01AE37700D2120462A465E
:10174000334600F0EFF9367802AB1F700C212046CB
:101750002A4600F0E7F9029800028019124C6081D5
:1017600081B212A000F034FD0A20205EFEF732FDA7
:10177000124A134BFEF7C6FCFEF754FDE060FEF77D
:101780003DFD02460FA00B4600F022FD03B0F0BD68
:101790006465746563744D61676E65742069732058
:1017A00025640D0A000000000800002072617764C3
:1017B0006174612069732025640D0A001283C0CA18
:1017C000A145B63F64656772657373206973202510
:1017D000660D0A0070470000F0B587B0CE4A144687
:1017E000143C20688C49084020601068CB490840B0
:1017F0000F461060012104914B02106818431060DD
:101800008E02101F01683140069101601168394055
:101810001160116819431160016831400591016040
:101820001168394011601168194311600168314035
:10183000039101601168394011601168194311600A
:1018400001683140029101601168394011601168EE
:1018500019431160016831400191016011683940FC
:1018600011601168194311600168314000910160F5
:1018700011683940116011681943116005683540DD
:1018800005601168394011601168194311600168E1
:101890003140016010683840106020685E4F384069
:1018A00020600498000527680743276010683043CC
:1018B00010601068184310601068984B1840106052
:1018C0000698400A059A920A80188000039A520AE4
:1018D0008018029A920A80188000019A520A801891
:1018E000009A920A801880006A0A8018890A4018B3
:1018F000C0B207B0F0BDC046F0B587B0864A144606
:10190000143C20684449084020601068834908401E
:101910000F461060012104914B02106818431060BB
:101920008E02101F01683140069101601168394034
:10193000116011681943116001683140059101601F
:101940001168394011601168194311600168314014
:1019500003910160116839401160116819431160E9
:1019600001683140029101601168394011601168CD
:1019700019431160016831400191016011683940DB
:1019800011601168194311600168314000910160D4
:1019900011683940116011681943116005683540BC
:1019A00005601168394011601168194311600168C0
:1019B000314001601068384010602068164F384090
:1019C0002060049800052768074327601068B0432B
:1019D00010601068184310601068504B1840106079
:1019E0000698400A059A920A80188000039A520AC3
:1019F0008018029A920A80188000019A520A801870
:101A0000009A920A801880006A0A8018890A401891
:101A1000C0B207B0F0BDC046FFFFCFFF70B50321D5
:101A20000A053D490B46143B1C6894431C60012485
:101A300022051D6815431D600B68384A13400B6072
:101A40000D68374B1D4080260640F600AD190D602D
:101A500064020D6825430D600D6815400D600D682A
:101A60001D40402606403601AD190D600D68254326
:101A70000D600D6815400D600D681D402026064064
:101A80007601AD190D600D6825430D600D68154098
:101A90000D600D681D4010260640B601AD190D60A1
:101AA0000D6825430D600D6815400D600D681D40E3
:101AB00008260640F601AD190D600D6825430D603E
:101AC0000D6815400D600D681D4004260640360265
:101AD000AD190D600D6825430D600D6815400D6052
:101AE0000D681D40022606407602AD190D600D6896
:101AF00025430D600D6815400D600D681D40C00741
:101B0000400D2818086008682043086008681040E5
:101B10000860002070BDC04614000048FFFDFFFFB4
:101B2000FFFBFFFFF0B58BB01C4615460191C54F7A
:101B30003E46143E3168C44A1140316001231A0503
:101B400031680592114331609A0207923968114356
:101B5000396003935A020692396811433960396833
:101B6000BA4A114039603968B94A114039604000B9
:101B70000290C0B2FFF752FF3346B34E08A80021CF
:101B8000049101701868304018603868079A104353
:101B9000386038680699084338600093A948071FE1
:101BA0003868104038603ED00898401C08A908707A
:101BB0000878FA2820D838681040386033D0089860
:101BC000401C08A908700878FA2815D83868104011
:101BD000386028D00898401C08A908700878FA28AE
:101BE0000AD83868104038601DD00898401C08A9F1
:101BF00008700878FB28D1D318683040186018683E
:101C00000599084318608F4E30689149084030604C
:101C100030688E490840306030680699084330606B
:101C20003068104303E0874E3068894908403060CF
:101C30000198FFF7F3FE09A804990170009B18684A
:101C40008149084018603068079A10433060306856
:101C5000069908433060059E38681040386041D0CE
:101C60000998401C09A908700878FA2820D8386813
:101C70001040386036D00998401C09A908700878CF
:101C8000FA2815D83868104038602BD00998401CC5
:101C900009A908700878FA280AD83868104038600E
:101CA00020D00998401C09A908700878FB28D3D3D4
:101CB0001868654908401860186830431860614921
:101CC0000868634E304008600868604A1040086049
:101CD0000868069A1043086008681946079A134670
:101CE000104305E019461346564E3068584E3040B2
:101CF0001E46544A10600868534B18400860086834
:101D0000059B184308601068304310601068069BFC
:101D10001843106010684D4E3040106010684C4EF3
:101D2000304010600398029A0243D0B20E46FFF78B
:101D300075FE32460AA8049901703068424908408D
:101D40003060404B18680799084318601868069976
:101D500008431860386807990840386043D00A98EB
:101D6000401C0AA908700878FA2823D8386807990F
:101D70000840386037D00A98401C0AA908700878D3
:101D8000FA2817D838680799084038602BD00A9885
:101D9000401C0AA908700878FA280BD838680799F7
:101DA000084038601FD00A98401C0AA908700878BB
:101DB000FB28CFD3106824490840106010680599AB
:101DC000084310601F4F3868214908403860386860
:101DD0001E490840386038680699084338603868FA
:101DE0000799084303E0174F3868194908403860DD
:101DF00005E0FFF7F1FC20706D1E641C3246E8B26E
:101E00000128F6D0002802D0FFF776FDF3E710682E
:101E10000D49084010601068059908431060386843
:101E20000B4908403860386808490840386038680D
:101E300006990843386038680799084338600020DD
:101E40000BB0F0BD14000048FFFFCFFFFFFBFFFF0A
:101E5000FFFDFFFF80B5FEF745FE80BD124802681A
:101E600001210A4302604268104B1340436002683C
:101E70000F4B134003608A040368934303603F22BF
:101E80001204436893434360C26A0F239A43C262B9
:101E9000FF221432036B93430363426B8A43426312
:101EA000002181607047C046001002400CB8FF0856
:101EB000FFFFF6FEB0B5416ACA070CD18A0714D4F9
:101EC0004A071CD40A0724D4CA062CD48A0634D460
:101ED0004A063CD44CE00122520403685C689443F7
:101EE000826A22435A608A07EAD5012212040368F3
:101EF0005C689443C26A22435A604A07E2D50122D1
:101F0000920403685C689443026B22435A600A0798
:101F1000DAD50122D20303685C689443426B224302
:101F20005A60CA06D2D50122120303689C68944302
:101F3000826B22439A608A06CAD501225203036843
:101F40009C689443C26B22439A604A0610D50122D2
:101F50001305026854689C43056C2C4354609D42F1
:101F600006D103235B0554689C43436C23435360B1
:101F7000090607D50121C904026853688B43806CA8
:101F800018435060B0BD80B5406A0146523100220E
:101F90000A8152214252FFF777F980BD70B504469D
:101FA0000568286836490140A068226902436069D3
:101FB00010430843E16908432860032000036A686E
:101FC0008243E06810436860A069226A02430B20E4
:101FD0000002AB6883431343AB602A480068800764
:101FE000000F29A213580120C203914211D10120F0
:101FF00000212B4D042B26D8284AC0467B441B7950
:102000005B009F44021913201700FEF705FF4200F2
:1020100012E0042B33D8C0467B441B795B009F44FD
:1020200002181C2E2600FEF7F7FE18E0FEF702FF4E
:10203000420001E02A461032616848088018FEF725
:102040000DF9014600200D400907490F2943256875
:1020500014E061684808104A0BE0FEF7EBFE616887
:102060004A081018FEF7FAF881B2256805E06168A1
:1020700048088018FEF7F2F881B20020E96070BDD0
:10208000F369FFFF30100240000000000200000072
:10209000040000000100000000127A000024F40097
:1020A000F0FF000080B50248FFF7F0F880BDC046A1
:1020B0001C00002096B0FEF71DFD00250E950D9525
:1020C000119510950F950C950B9515950520C0044D
:1020D00014901395022012900A900446019010204B
:1020E0000E9001260D960595049503950AA8FEF716
:1020F000C7FE0995089507940720069006A8314663
:10210000FEF7D4FD0495029602A8FEF74FFD0E954A
:10211000B0052C4A11680143116011680140069115
:10212000069870041168014311601168014006911E
:1021300006980920C70603204402384621462A464D
:10214000FEF7C4FC0D950C950B960A940AA9384627
:10215000FEF7F0FB1B490868304308600868304010
:102160000A900A980A24204629462A46FEF702FDCC
:102170002046FEF7F5FC144F0C20E1214902134ADA
:102180007A60B960FD603D617D61B861FD613D626D
:102190007D62BD623C1D2046FFF7DEF9F0057968DF
:1021A0004A6802434A602720486120463946019A1E
:1021B000FFF75CFAFFF7ACFA7D208000FEF7A8FB82
:1021C000F8E7C04614100240180000200038014013
:1021D0000FB410B503A9044B044A029800F0E8F8C4
:1021E00010BC08BC04B01847E92A00080000002011
:1021F0002021020C01D010211046020A01D0104605
:102200000839020901D01046091F820801D0104682
:10221000891E420801D0881E7047081A704702E0E4
:1022200008C8121F08C1002AFAD170477047002061
:1022300001E001C1121F002AFBD17047F0B51FB4A5
:1022400086B00998089A030D0021024314D0514822
:10225000514A1818504305141198012810981AD0A3
:10226000281A401C00264D4F4D49009601910490BC
:10227000002812DA444211E01198012449A30128F0
:1022800001D11098C1430698119A84600360C2601E
:1022900041600BB0F0BD4042E4E704462105002058
:1022A0003F4A001C51410391029012E0E00707D021
:1022B00032463B4601990098FDF724FF01910090BA
:1022C00032463B4610461946FDF71CFF06460F46B0
:1022D0006410002CEAD10498039B0028029A099903
:1022E000089806DAFDF70EFF019B009AFDF70AFF3A
:1022F00005E0FEF755F9019B009AFEF751F90446F7
:102300000E460022284BFEF7E3F903D80020C04315
:10231000014607E00022254B20463146FEF78EF8A5
:10232000FEF7B6F9102409E0002C0ADB0A2200238C
:10233000FDF7B3FF079B30321A55641E02460A436D
:10234000F2D11122641C079B121B1C19119B012B3B
:1023500003D0012308430ED10AE0084304D0112022
:1023600010900020119077E71098151A6D1E0BE061
:102370001098824202DD00236D1C03E0824201DAE4
:1023800000236D1E002BEED0069811998260C1606B
:1023900030C07EE701FCFFFF104D0000000014403C
:1023A0000000F03F300000000000F0430000E03F7C
:1023B000FFB597B00646002518E2252877D10024FE
:1023C0002746FD49049400E00443761C327801203E
:1023D000203A90400842F7D130782A280ED00222C5
:1023E000307801463039092916D804990A2359430F
:1023F000303940181443761C0490F1E7189802C84D
:1024000004911890002904DA012040030443484253
:10241000049002200443761C30782E2814D1042026
:1024200004437078761C2A2809D11898761C80C835
:10243000189009E00A214F43303FC719761C3078C5
:10244000014630390929F5D930786C2810D006DCDE
:102450004C281AD068280ED06A2817D104E07428B6
:1024600013D07A2812D110E00120400504430CE07B
:102470000121090501E0032109050C43717881421E
:1024800003D1012000052418761C761C30781190A9
:1024900066280BD013DC58287DD009DC00287BD0BF
:1024A0004528F6D04628F4D047281AD1A5E118E0EF
:1024B000632835D0642870D0652812D19DE170283A
:1024C0006CD008DC6728F1D069287BD06E280DD04D
:1024D0006F2806D1BAE073282ED0752871D07828DD
:1024E00059D01A9A199990476D1C7EE16002400FED
:1024F000022809D003280DD00428189801680DD0AF
:102500000D60001D189070E11898EA1701680D60C1
:102510004A60F6E7189801680D80F2E70D70F0E761
:1025200018986A4601781172001D189000205072A8
:1025300002A80090012005E0189802C81890002019
:102540000091C04361070DD5002101E00199491CAC
:102550000191B94212DA8142F8DB009A515C0029FC
:10256000F4D10BE0002101E00199491C0191814265
:10257000FADB019A0099895C0029F5D10199049848
:102580001A9B471A21463846199A00F097FA019982
:10259000401945180BE04FE02CE113E04EE00098A5
:1025A00000990078491C00911A9A1999904701984E
:1025B000401E0190401CF2D1214638461A9B199AC0
:1025C00010E137E00A200021009001916002410FE4
:1025D000022907D0189A01CA1892C21794460329F3
:1025E00008D00AE01898C01DC108C90005C9189193
:1025F000944607E000B2C2179446042902D140B2C3
:10260000C1178C4600226146944506DA0A4600212D
:10261000404291418C462D2102E0210504D52B2119
:102620006A461173012103E0E10701D02021F7E799
:10263000029155E00A200AE0102008E010200090E6
:102640000021042004430191082703E00820002111
:10265000019100906002410F022907D0189A01CA27
:10266000189200229446032908D008E01898C01D4B
:10267000C108C90005C91891944603E080B2042935
:1026800000D1C0B200210291210729D511997029EA
:1026900006D0009A1021019B4A401A4305D00EE053
:1026A00040216A461173012108E06146014306D0CA
:1026B00030216A4611731199517302210291009AD7
:1026C0000821019B4A401A430AD16146014301D1C6
:1026D000610705D530216A46117301217F1E0291E1
:1026E0001199582904D035A10E910DA90D910DE035
:1026F00037A1F9E76146019B009AFDF7CEFD0E9BDD
:102700008C469B5C0D9A521E0D92137061460143DC
:10271000F0D10D9805A9081A20300190600703D563
:1027200001200004844300E001270198874201DD75
:10273000381A00E000200199009041180298091809
:102740000498401A0490E00306D421461A9B199A73
:10275000049800F0B3F94519002706E003A81A9A77
:10276000C05D199990476D1C7F1C02988742F5DB6C
:10277000E0030CD521461A9B199A049800F09EF9A3
:10278000451904E01A9A3020199990476D1C009958
:10279000481E00900029F5DC08E00D980D9900789E
:1027A000491C0D911A9A199990476D1C0199481E60
:1027B00001900029F1DC63E1092801003031323356
:1027C000343536373839616263646566000000006D
:1027D0003031323334353637383941424344454657
:1027E0000000000000F05AF94519761C30780028E6
:1027F00000D0E2E528461BB0F0BD600700D40627F4
:102800001898C01DC108C90048680A680831C30F7C
:10281000DB071891190001D09CA108E0210501D522
:102820009BA104E0E10701D09AA100E09AA1430036
:1028300011985B08109165280CD006DC452809D05A
:1028400046281DD0472841D141E0662818D0672886
:102850003CD13CE00021112F01DB112000E0781C6D
:102860000191009008A911A8FFF7E8FC13990591C0
:102870000021119A15927F1C12980197009150E047
:102880000120C00703900120019008A9009711A81A
:10289000FFF7D4FC139A149905920022119B009221
:1028A00012981593059A0192002901D0104602E072
:1028B000791C40180190381A01D5019804E0404273
:1028C000401E0090781C0190C01B029043E0012F35
:1028D00000DA01270021112F01DD112000E0384628
:1028E0000191009008A911A8FFF7A8FC1399059180
:1028F000119A0021129815920091019721070CD48A
:102900000599B94201DB019900E00191012904DD3B
:10291000159A491E515C302906D0B84201DA011DD2
:1029200005DA0121029115E00199491EEDE7002821
:1029300005DC0099411800910199091A03E0019AF8
:10294000411C914200DD01910099401A401C029007
:102950000120C0070390200706D402990198814204
:1029600002DB0020C043029000206946C87707AF11
:10297000012103980337C907884224D0022011900F
:102980002B201290039800280CDA404203902D204F
:10299000129007E00A210398FDF760FC30317F1E9A
:1029A000039039701199481E11900029F2DC0398A8
:1029B0000028EFD1791E1298087030782021084045
:1029C0004530BF1E387006A8C01BC01D039010986C
:1029D0000078002800D00120019941180298C01702
:1029E0000918039809180498401A401E0490E0033F
:1029F00006D421461A9B199A049800F05FF84519ED
:102A000010980078002803D01A9A199990476D1CE5
:102A1000E00324D521461A9B199A049800F04EF839
:102A200045191CE00098002807DB009905988842AA
:102A300003DD1598405C199901E0199930201A9A24
:102A4000904700986D1C401C00900298401E029018
:102A5000002804D11A9A2E20199990476D1C0199CB
:102A6000481E01900029DDDC05E038781A9A7F1CA9
:102A7000199990476D1C0399481E03900029F4DCB6
:102A800021461A9B199A0498ACE600002D0000001C
:102A90002B0000002000000000000000F8B50446F4
:102AA00000251E461746880404D405E03946202038
:102AB000B0476D1C641EF9D52846F8BDFFB5044625
:102AC000002581B01E46C80301D5302700E020272D
:102AD000880404D505E038460399B0476D1C641E90
:102AE000F9D5284605B0F0BD38B5044668460470EF
:102AF00069460320ABBE204638BD00000000000040
:102B0000000001020304060708090000000001029A
:102B1000030402030405060708090A0B0C0D0E0F37
:102B200010100102030405060708090A0B0C0D0E1C
:102B30000F100000582B00080000002008000000C3
:102B40001E220008602B000808000020D0040000AE
:102B50002E220008000000000000000000127A0091
:04000005080000B13E
:00000001FF
